S0120000424D413430305F4649464F2E733337FB
S2140000000010002055650000536500005365000091
S21400001053650000536500005365000053650000FB
S21400002053650000536500005365000053650000EB
S21400003053650000536500005365000053650000DB
S21400004053650000536500005365000053650000CB
S21400005053650000536500005365000053650000BB
S21400006053650000536500005365000053650000AB
S214000070411E0100536500005365000053650000F3
S214000080536500005365000053650000536500008B
S21400009053650000293301005365000053650000D6
S2140000A053650000F9AC0000C5AC000053650000C5
S2140000B0536500005365000053650000536500005B
S2140000C0536500005365000053650000536500004B
S2140000D0536500005365000053650000536500003B
S2140000E0536500005365000053650000536500002B
S2140000F0536500005365000053650000536500001B
S214000100536500005365000053650000536500000A
S21400011053650000536500005365000053650000FA
S21400012053650000536500005365000053650000EA
S21400013053650000536500007934010069340100FE
S21400014010B5054C237833B9044B13B1044800E0CE
S21400015000BF0123237010BD3C18002000000000E3
S21400016038D7010008B5034B1BB10349034800E02C
S21400017000BF08BD000000004018002038D701006E
S214000180A3F5803A704700BF174B002B08BF134BF0
S2140001909D46FFF7F5FF00218B460F461348144A8D
S2140001A0121A13F088FA0E4B002B00D098470D4B0E
S2140001B0002B00D098470020002104000D000D48B9
S2140001C0002802D00C4800E000BF13F00BFA200015
S2140001D029000FF0FFFA13F0DFF900BF0000080057
S2140001E00000000000000000001000203C18002066
S2140001F01C2700200000000000000000054B1B68C4
S2140002008B4204DB044B03EBC101486870470020B7
S214000210704700BF181D0020C81C0020014800EBD6
S214000220811070475818002001EB4101014800EB8F
S214000230810070475C1B0020012800D070474FF6F5
S214000240FF739942FAD1084B1A68084B5A6002F1BC
S2140002504001C3F8AC10C3F8C42002F12001C3F873
S214000260DC10C3F8F420E9E7181B0020001000207B
S21400027038B50D46154B1C68641A154B1B689C4216
S2140002801CD2144B1B68092B0ED80121284601F0FE
S21400029057FB044668B10F4A1368591C11600E4A92
S2140002A042F82300204638BD0C4801F028FB002405
S2140002B0F8E729460A4801F022FBF3E7034B1C60E7
S2140002C00A460021204613F0F6F9EBE7EC1C002066
S2140002D0E81C00201C1D0020F01C00208891010056
S2140002E00892010030B583B00C46124B1B68032BF6
S2140002F015D815460091FFF7BBFF0190A0B10D4C35
S21400030023680D4A02EBC30202A911E9030082E842
S21400031003002B6001332360002003B030BD074884
S21400032001F0EDFA0120F8E72146054801F0E7FA6A
S2140003300120F2E7181D0020C81C00204092010092
S21400034098920100F0B589B003464FF498711020DA
S21400035098477A4B1860B8B10446794B186000F598
S2140003609875784B1D60784B784A9A63784A1A6479
S214000370784A5A64784A1A65784A5A65784A9A607A
S2140003800B221A6000231CE0764801F0B8FA01231D
S214000390D0E042682244CCF80420734840F8272076
S2140003A043E003EB4302714901EBC20251690A685C
S2140003B05068CCF80C0049684968CCF8101047E043
S2140003C001330A2B53D8694E03EB430706EBC700ED
S2140003D090F801E062499A0101EB831C01F802E003
S2140003E0614901EB870282F808E000218CF82D10A5
S2140003F016F837E08CF814E0C668CCF81860816808
S214000400CCF808105160BEF1020FC2D003EB4302D5
S214000410564901EBC2025168514A02EB8312516001
S21400042003EB4302504840F822104D4A02EB831C6F
S2140004300CF1300703EB43024C4901EBC2021032C9
S21400044092E8030087E803009CF83020012AA8D031
S214000450BEF1020FB4D1424A02EB83125268164430
S214000460374A1268B242ABD2354A1660A8E7344B18
S2140004701B689D4218D33E4D684600F02BFA2C466A
S2140004806E460FCE0FC496E80F0084E80F0068464D
S21400049000F020FC20356C460FCC0FC594E80F000A
S2140004A085E80F00002405E0324801F028FA012311
S2140004B040E00134032C22D82F49230101EB04121B
S2140004C0CD582E4904EBC40001EB800341F82050C0
S2140004D0516859609168596100209861D861137B12
S2140004E05B01234AD358002BE3D0024616489847B0
S2140004F004EBC403214A02EB83031861D9E7002406
S21400050000E00134032C14D81B4B03EB04131A7BB6
S214000510174B03EB42139A68002AF2D004EBC4038D
S214000520164901EB83010848904703460028E8D0A7
S21400053000E00023184609B0F0BD00BF181B0020DD
S214000540E81C0020EC1C0020E01B002071020000CC
S214000550E5020000FD0100001D0200002902000067
S21400056058180020CC9201005C1B002000100020D0
S2140005701C1B0020F492010088A20100381C0020F9
S214000580014B9868704700BFE01B0020024B98683C
S21400059000F52070704700BFE01B002010B5002457
S2140005A0032C12D80A4B03EB04131A7B094B03EBFC
S2140005B04213DA6804EBC403074901EB83010748DA
S2140005C09047034610B90134EAE70023184610BDE9
S2140005D088A201001C1B0020381C0020E01B002005
S2140005E010B503460A4A106898470024094B1C6059
S2140005F005E0094B53F8240001F0A6F90134074B37
S2140006001B68A342F5D80020044B186010BD00BF3D
S214000610181B0020181D0020F01C00201C1D0020A8
S21400062008B54FF6FF710120FFF706FE08BD08B5B6
S21400063008B1006808BD12F077FF08B1006870477F
S214000640704708B508B1006808BD12F06DFF08B520
S214000650836B13B12421984708BD12F065FF000094
S2140006602DE9F04F95B00F6987B306460C464D69E5
S21400067075B38B4B1A6800F0C5FF804650B3894BA4
S2140006801A682146304600F0BDFF814678B3864B97
S2140006901A682146304600F0F3FF8246834B1A68FC
S2140006A02146304600F0CDFF834650B398F8000050
S2140006B09BF8003098422ED199F8003098423FD0EF
S2140006C073697B493046984701240CE012F02CFFF2
S2140006D012F02AFF7469774B00934023764A7749D5
S2140006E03046A0470124204615B0BDE8F08F746957
S2140006F0734B00934323704A70493046A047012449
S214000700F1E774696F4B009347236B4A6B49304699
S214000710A0470124E7E7756901F07CF804469BF8DA
S214000720000001F077F803900294674B0193674B43
S21400073000934923604A66493046A8470124D2E719
S2140007404FF0FF333B62297898F800200397CDF8E6
S21400075008B0CDF804A0CDF800904346304600F02F
S2140007605FFA04460028BED198F80030092BBAD1AB
S214000770D9F8088058F8045B002308930895052DDF
S21400078007DD6FF060439D4208D2A8000FF041F8E5
S2140007900990089B052B04DD099803E04FF0FF3015
S2140007A0F4E709A8AA00414612F05EFFDBF80880CD
S2140007B058F8045B00230E930E95052D07DD6FF0A9
S2140007C060439D4208D2A8000FF023F80F900E9BBE
S2140007D0052B04DD0F9803E04FF0FF30F4E70FA879
S2140007E0AA00414612F040FF0E9B022B34D1089B14
S2140007F0013B33D4089A934232DA052A32DD099A4D
S21400080052F8233004930123059306930E9B012B85
S2140008102EDD052B2EDD0F9B5B68079304A803F0E7
S214000820C1FA011E38DD336C07F1200230469847C6
S214000830054608BB0E9B052B03DD0F9808B10EF08E
S214000840D5FF089B052B7FF74EAF099800283FF48D
S2140008504AAF0EF0CBFF46E712F066FE12F064FEDB
S21400086012F062FE14AA02EB830353F82C3CC9E78D
S21400087012F05AFE109BD0E70E9B052B03DD0F9857
S21400088008B10EF0B3FF089B052B03DD099808B1ED
S2140008900EF0ACFF2C4626E74FF0FF333B62C9E76D
S2140008A0B0A50100B8A50100ACA50100B4A50100E3
S2140008B0C0A301004CA30100E8A2010034A301007C
S2140008C060A3010074A30100A4A30100B4A3010067
S2140008D088A3010010B504460C4B0D4A1A6000228E
S2140008E05A600C4999600C49D9601A615A619A613C
S2140008F0DA6186469C46BCE80F00AEE80F009CE82E
S2140009000F008EE80F00204610BD00BF201D0020FF
S2140009104F06000061060000FD0A00002DE9F04FBA
S214000920B5B0064614461D46DDF8F890DDF80081A1
S21400093041462EA800F0A8F92E9B022B40F091808D
S2140009402E9B002B40F38F80052B40F38E802F9B31
S214000950D3F800A02E9B012B40F38A80052B40F392
S21400096089802F9B5F68494628A800F08DF9289B50
S214000970013B00F18180289A93427FDA052A7FDDC9
S214000980299A52F823B0294622A800F07DF9636917
S2140009905B421D93E3691F93A3695B421E93A368A2
S2140009A02093E368219323681B9363681C93CDF818
S2140009B05CA0012318931993CDF868B0CDF84CB01D
S2140009C01493159316970F93109311931297CDF8CF
S2140009D02CA00C930D930E97002309930A93216A7B
S2140009E0994203DB736C3046984709902846FFF718
S2140009F01EFE04464846FFF71AFE07463F98FFF7D6
S214000A0020FE82464046FFF718FE06900BAB059385
S214000A10CDF810A00FAB0393029713AB019300948D
S214000A2017AB1BAA1DA909A803F084F970BB002404
S214000A30229B052B03DD239808B10EF0D7FE289BDA
S214000A40052B03DD299808B10EF0D0FE2E9B052B52
S214000A5003DD2F9808B10EF0C9FE204635B0BDE87C
S214000A60F08F12F061FD12F05FFDDDF8BCA071E7BB
S214000A7012F05AFD309F76E712F056FD12F054FD44
S214000A8034AA02EB830353F82CBC7CE7D6F814A0F8
S214000A902846FFF7CCFD04464846FFF7C8FD054646
S214000AA03F98FFF7CEFD07464046FFF7C6FD069087
S214000AB00BAB059304970FAB0393029513AB01930F
S214000AC0009417AB1BAA1DA909A803F033F900234D
S214000AD003930290054B0193054B0093B223054AFE
S214000AE005493046D0470124A2E700BF58A40100BC
S214000AF06CA40100E8A201003CA401002DE9F0432B
S214000B0085B04B69002B49D004460D463F4B1A680A
S214000B10002845D0002945D0466D0B6803EB8203BC
S214000B205968B04707463A4B1968002C3CD0002D50
S214000B303CD0626D2B6803EB8103596820469047D2
S214000B408046344B1968002C32D0002D32D0626DAE
S214000B502B6803EB810359682046904781462E4B4D
S214000B6019684CB355B3626D6B6803EB8103596823
S214000B70204690472A691AB33E7A032E3BD0092EA8
S214000B802DD0012E1ED06569304600F043FE024689
S214000B903B7A22492046A84701261CE012F0C4FCF6
S214000BA012F0C2FC12F0C0FC12F0BEFC12F0BCFC4C
S214000BB012F0BAFC12F0B8FC12F0B6FC12F0B4FC5C
S214000BC012F0B2FC6569304600F024FE02463B7A1D
S214000BD012492046A847304605B0BDE8F08302908B
S214000BE0CDF80490CDF800803B4629462046FFF716
S214000BF095FE0646EFE76569304600F00BFE0246B6
S214000C003B7A06492046A8470126E4E7B0A501003E
S214000C10B8A50100ACA50100B4A5010090A501008F
S214000C202DE9F04184B00C9E0D9D012A03D10020D1
S214000C3004B0BDE8F081044688461F460022002323
S214000C40CDE9022302AB019300960B9B0A9A394624
S214000C5000F056FD0028EBD1291D28469DED020B1D
S214000C6000F060FB3B696B610A9B1B69AB613369F3
S214000C70EB6105F10C03009305F10803324641468B
S214000C80204600F093FDD3E770B50446C9B14D6821
S214000C90BDB155F8046B002303600660052E07DD22
S214000CA06FF060439E4210D2B0000EF0B2FD60605E
S214000CB02368052B0CDD6068B200294612F0D4FCD0
S214000CC001E000232360204670BD4FF0FF30ECE7C4
S214000CD0201DF1E710B586468446054C0FCCACE8DF
S214000CE00F0094E80F008CE80F00704610BD00BFA0
S214000CF0BCA50100037A032B00F0D9802DE9F0474C
S214000D0092B005460E461746092B40F0AB800B7A8C
S214000D10072B00F0A780014604A8FFF7B5FF314671
S214000D200AA8FFF7B1FF049800F1FF3C002315E086
S214000D3012F0FAFB12F0F8FB12AA02EB830252F84A
S214000D40342C19E012F0F0FB12F0EEFB12A901EBC6
S214000D50830151F81C1C914219D10133984218DDC9
S214000D609C45FAD0002BE3DB049A9342E2DA052A8C
S214000D70E2DD059A52F82320002BE3DB0A9CA3420F
S214000D80E2DA052CE2DD0B9951F82310E3E712F0C6
S214000D90CBFB0499BCF1000F05DB8C4503DA052973
S214000DA003DD059802E012F0BFFB05A8002301242E
S214000DB004E050F8232002FB04F40133994203DDDB
S214000DC09C45F6D10122F6E7BCF1000F4DDB049BF3
S214000DD09C454CDA052B4CDD059B53F82C30BCF1BA
S214000DE0000F4CDB0A9A94454BDA052A4BDD0B9A2A
S214000DF052F82C209A424CD11193BCF1000F4ADBDA
S214000E000A9A944549DA052A49DD0B9A52F82C20AD
S214000E101092934249DC11ABD3F800802846FFF7C6
S214000E2006FC0546D7F80890D7F80CA0BF693046F0
S214000E30FFF703FC02900197CDF800A04B46424610
S214000E402146284601F0C6FC0A9B052B03DD0B98BD
S214000E5008B10EF0CBFC049B052B03DD059808B10A
S214000E600EF0C4FC12B0BDE8F08712F05DFB12F085
S214000E705BFB12AB03EB8C0353F8343CAFE712F08A
S214000E8053FB12F051FB12AA02EB8C0252F81C2CF8
S214000E90B0E712F049FB12F047FB12F045FB12AA2E
S214000EA002EB8C0C5CF81C2CB2E710ABB4E7704776
S214000EB0F0B58FB070B30C46054669B3436D0A684B
S214000EC05168984706464DB354B36B6D62685168D7
S214000ED0284698470746236923B3EE469C46BCE857
S214000EE00F00AEE80F00BCE80F00AEE80F00BCE84D
S214000EF00F00AEE80F009CE803008EE80300347A8B
S214000F00631E082B39D8DFE803F00F38223838384C
S214000F102D381B0012F008FB12F006FB12F004FB43
S214000F2012F002FB12F000FB6F69204600F072FC24
S214000F300246337A16492846B84720460FB0F0BD19
S214000F406A4639463046FFF7D5FE0024F5E76F6956
S214000F50204600F05FFC0246337A0D492846B84723
S214000F600124EAE76F69204600F054FC0246337A13
S214000F7007492846B8470124DFE76F69204600F096
S214000F8049FC0246337A02492846B8470124D4E78A
S214000F9090A5010070B52DED028B88B004460D4675
S214000FA00878092802D0072840F0CE8007281BD0F2
S214000FB0092823D11078072837D0092875D1116958
S214000FC011F1800F00F0858065696FF07F03039351
S214000FD00291624B0193624B00933C23614A624943
S214000FE02046A84701201CE0666900F013FC024674
S214000FF02B785E492046B047012012E0666900F073
S21400100009FC0546092000F005FC03900295584BA4
S2140010100193584B00933523524A57492046B04710
S214001020012008B0BDEC028B70BD116911F5004FB0
S2140010300ED06569514B03930291514B0193484B77
S21400104000933723474A48492046A8470120E8E747
S21400105092ED037ADFED4B7AB4EEE77AF1EE10FA12
S2140010601EDD77EE677ADFED486AF4EEE67AF1EE9B
S21400107010FA37DD65690022444BCDE9042317EEEC
S214001080100A0EF035FDCDE90201414B0193414BAC
S21400109000933823334A40492046A8470120C0E73A
S2140010A0DFED387A77EEC77ADDE7666900F0B2FBE7
S2140010B00546092000F0AEFB039002952C4B0193E9
S2140010C0364B00933B23274A2B492046B047012046
S2140010D0A7E792ED037ADFED327AB4EE677AF1EEA7
S2140010E010FA27D11E680E9B03F10804E8680EF07C
S2140010F0FFFC41EC180B30460EF0FAFC41EC100BEE
S21400110007AA21460520B0EE481AF0EE681A00F04D
S2140011107BF907990E9BD9601F22052000F0A8F9DD
S2140011200EF0D4FC01F100410EF0D4FF0E9B986146
S214001130002076E765691B4B00933D23094A1A4950
S2140011402046A84701206CE7666900F063FB02466C
S2140011502B7806492046B047012062E798A6010092
S21400116038A60100DCA501003CA4010090A5010002
S21400117024A60100B4A3010088A301000080FFFF9D
S21400118030A60100000080376F1283320000F03E68
S21400119074A6010080A6010054A60100A4A30100C5
S2140011A00000803BA0A6010034A3010008B5836BB5
S2140011B013B13821984708BD12F0B6F970B584B05F
S2140011C004460B681B68012B0ED046690125039563
S2140011D00293464B0193464B00937B23454A464970
S2140011E0B047284604B070BD0D464B681B68012BFF
S2140011F00DD046690125039502933C4B01933F4B66
S21400120000937C233B4A3C49B0472846EAE7002245
S21400121000F0F8F9064620B383681B68002B2ADD29
S21400122000222946204600F00CFA024600282CD060
S2140012302B69002B33D0307807283AD0117807294D
S21400124041D088424BD06569039102902C4B0193A4
S2140012502C4B00939C23274A27492046A847012069
S214001260C0E76569284B00937E23224A274920461B
S214001270A8470120B6E76569254B00937F231D4AE2
S21400128022492046A8470120ACE76569214B009318
S2140012908123184A1D492046A8470120A2E7656910
S2140012A01D4B00938323134A18492046A847012064
S2140012B098E7656900F0AEFA02463378174920468B
S2140012C0A84701208EE7092809D06569144B0093CA
S2140012D09923084A0D492046A847012082E7009333
S2140012E06B6931462046FFF755FE7BE700A70100F5
S2140012F0C4A60100DCA501003CA40100D4A60100A0
S214001300A4A30100B4A301004CA3010034A3010070
S214001310E8A6010074A3010004A7010090A501003F
S21400132020A70100F8B557EC106B05460C460022C6
S214001330002310EE100A39460EF09AFE18B100236C
S2140013402B602360F8BD204647EC106B12F0A2FD20
S21400135051EC100B00221B4B0EF022FC41EC100B44
S21400136015F052FA51EC100B0EF0B4FF03460A4685
S2140013704FF0004686424FF000068E4111DB0029F2
S21400138008BFB0F1004F0ED0B3F1004F72F100026B
S21400139015DA226812F11F0F01DA002323602B6092
S2140013A0D0E712F0C1F8CA0F131841F100015B082C
S2140013B043EAC1734A10216801312160E4E712F064
S2140013C0B3F800BF0000E041F8B555EC104B0746F7
S2140013D00E4600220A4B10EE100A29460EF070FE4A
S2140013E048B13146384645EC104BFFF79BFF336853
S2140013F0002B02DBF8BD12F097F812F095F800BF4C
S2140014000000F03F000000002DE9F04184B0804667
S2140014100C46154653EC112B51EC100B0EF0C0FB8E
S21400142006460F464FF0004020FA08F00EF04EFB3E
S21400143032463B460EF0B4FB02460B46CDE900238F
S21400144009A3D3E90023CDE902230EF039FE48B9FB
S2140014506B462946204693ED000BFFF7B5FF04B018
S214001460BDE8F08102ABF4E70000C0FFFFFFDF41FC
S2140014702DE9F8430E46012404FA00FC121AA2F1E4
S2140014802001C2F1200304FA01F124FA03F341EA31
S214001490030704FA02F50CF1FF300EF017FB804646
S2140014A08946284639460EF04DFB02460B46404616
S2140014B049460EF075FB80468946A6F12001C6F126
S2140014C0200304FA01F124FA03F304FA06F01943A0
S2140014D00EF038FB02460B46404649460EF08AFCA4
S2140014E041EC100B15F00CF951EC100B0EF0F2FD60
S2140014F0BDE8F8838AB001910092D3ED037A1B69A8
S214001500CDED037A049301280AD0032821D00228BF
S2140015104AD0019B0A9A1360009B0B9A136014E052
S214001520DFED376A86EEA77AF8FE477AFDEEE77AB1
S21400153017EE902A13440593994208DB01AB1B680B
S2140015400A9A1360009B0B9A13600AB0704705ABAB
S214001550F5E7DFED2B6A86EEA77AB8FE477ABDEE92
S214001560C77A17EE102A1A4406920199914217DBA1
S21400157001AA12680A990A60F1EE086A86EEA77A4E
S214001580F8FE477AFDEEE77A17EE902A13440793A3
S214001590009A9A4206DC6B461B680B9A1360D4E7E7
S2140015A006AAE6E707ABF7E7FFEE006A86EEA77A3D
S2140015B0B8FE477ABDEEC77A17EE102A1A4408928C
S2140015C00199914217DB01AA12680A990A60F7EEA0
S2140015D0006A86EEA77AF8FE477AFDEEE77A17EEFF
S2140015E0902A13440993009A9A4206DC6B461B68BD
S2140015F00B9A1360A9E708AAE6E709ABF7E700BF6E
S2140016000000000008B50B6853F8041B002A10DB26
S2140016108A4210DA53F82210B1F1FF3F0DD00029AC
S2140016200DDB836813B103EB811008BD036D98478B
S214001630FBE70020F9E70020F7E70020F5E70020A9
S214001640F3E708B54B6853F8041B002A10DB9142F9
S21400165010DD53F82210B1F1FF3F0DD000290DDB4D
S214001660836813B103EB811008BD036D9847FBE751
S2140016700020F9E70020F7E70020F5E70020F3E771
S21400168008B5FFF7BFFF08BDF0B52DED028B83B0A0
S21400169005461C4691ED038AD2ED037A28EE278A8A
S2140016A018EE100A0EF024FAB5EEC08AF1EE10FA23
S2140016B012DB06460F46E0680EF01AFA02460B46A4
S2140016C0304639460EF096FB0A9BC3E9000100201F
S2140016D003B0BDEC028BF0BD6C69054B009340F285
S2140016E05113044A04492846A0470120F0E700BFEA
S2140016F0A0A701005CA7010034A3010000000000C1
S2140017002DE9F04782B007460D4616461C46DDF822
S21400171028A0C8680EF0ECF980468946F0680EF0FE
S214001720E7F902460B46404649460EF039FAECB158
S21400173080468946E0680EF0DBF902460B464046D6
S21400174049460EF075F8804621F00049DAF80C009C
S2140017500EF0CEF902460B46404649460EF04AFBCE
S21400176010A3D3E900230EF097FC50B10B9B009317
S2140017705346324629463846FFF786FF02B0BDE894
S214001780F0877C69044B00934FF4A273034A044924
S2140017903846A0470120F1E7BCA701005CA701007E
S2140017A034A301007B14AE47E17A943F10B582B0B3
S2140017B08646084694461278032A0FD0092A10D087
S2140017C0072A1AD0DEF814400E4B00934FF4C2736B
S2140017D00D4A0E497046A04701200CE0FF2200216A
S2140017E002E07F226FF07F01049C01940093634621
S2140017F0FFF780FE002002B010BD47F6FF720449D6
S214001800F2E700BFE0A701005CA7010034A30100D7
S2140018100080FFFF10282AD8DFE800F0092B0D1102
S214001820151F190B1B1321231D1725270F00124800
S214001830704712487047124870471248704712485F
S214001840704712487047124870471248704712484F
S214001850704712487047124870471248704712483F
S214001860704712487047124870471248704712482F
S21400187070471248704700BF84A8010000A8010006
S21400188008A8010010A8010018A8010020A801005F
S21400189028A8010030A8010038A8010040A80100CF
S2140018A04CA8010058A8010060A8010068A8010023
S2140018B070A801007CA80100E8A70100F8A70100B5
S2140018C00020704708B510F0DBF810F011F9002181
S2140018D008BD08B5FFF7F6FF4A0142EAD0624301A9
S2140018E01B1A62EB0102920042EA93729B001B18DD
S2140018F041EB0201C900D80041EA537108BD0FB49C
S21400190000B583B004A951F8040B01910FF042FF13
S21400191003B05DF804EB04B07047000008B510EEA5
S214001920100A0EF0E5F802460B460248FFF7E7FFFE
S21400193008BD00BF8CA8010008B511F077FE08BDF1
S21400194008B511F01BFE08BD08B511F077FE08BDFE
S21400195082B002F5847200EBC30C9CED007A92ED27
S214001960006A67EE066ADCED017AD2ED015A27EED0
S214001970A55A76EEC56ACDED006A27EE257A66EEA4
S214001980277A77EE277ACDED017A02EBC10290ED49
S214001990007A37EE667A8CED007A90ED017A37EEB3
S2140019A0677A8CED017A90ED007A77EE266AC0EDC4
S2140019B0006A90ED017A77EE277AC0ED017A0CF195
S2140019C0080C0830013BC8D102B070472DE9F04141
S2140019D08CB002F5847598462F462E4614E034EEF9
S2140019E0E77A8EED007A35EEA67A8EED017A74EE01
S2140019F0A77ACCED007A75EEE66ACCED016A08307F
S214001A00B8F1010800F0A78000EBC30E9EED007A47
S214001A1095ED006A27EE065ADEED015AD5ED017AFD
S214001A2065EEA76A35EE665A8DED005A67EE277AA0
S214001A3026EE256A77EE867ACDED017A00EB031462
S214001A4094ED006AD6ED005A26EE257AD4ED016AAA
S214001A50D6ED014A26EEA44A37EE447A8DED027A98
S214001A6026EE246A65EEA66A76EE266ACDED036A51
S214001A7003EB430C00EBCC0CDCED005AD7ED004A30
S214001A8025EEA44A9CED016AD7ED013A26EE233AEC
S214001A9034EE434A8DED044A65EEA35A24EE866A78
S214001AA035EE866A8DED056A90ED003A73EE474A8C
S214001AB0CDED0A4AD0ED013A73EEE65ACDED0B5A5B
S214001AC037EE037A80ED007A76EEA36AC0ED016AFF
S214001AD035EE043A8DED063A77EE863ACDED073AC6
S214001AE075EE446ACDED086A77EEC67ACDED097AD2
S214001AF037EE437A84ED007A90ED017A37EE637A1A
S214001B0084ED017A05EBC10506EB011601EB4104F5
S214001B1007EBC40790ED007A37EE037A80ED007A83
S214001B2090ED017A37EE237A80ED017A5468002C26
S214001B307FF455AF34EEA77A8EED007A35EEE67A6E
S214001B408EED017A74EEE77ACCED007A75EEA66A31
S214001B50CCED016A53E70CB0BDE8F0812DE9F04FFB
S214001B602DED048B8FB0054689469B4601FB03F39B
S214001B70213302AC02EBC30393E8030084E80300BE
S214001B8002F58477BA46D84605EBCB0494ED007A86
S214001B9097ED006A67EE066AD4ED017AD7ED015A32
S214001BA027EEA55A76EEC56ACDED066A27EE257AAB
S214001BB066EE277A77EE277ACDED077A05EB0B16D9
S214001BC096ED006ADAED005A26EE257A96ED015A71
S214001BD09AED018A65EE088A37EE687A8DED087A06
S214001BE026EE088A65EE855A38EE258A8DED098A36
S214001BF076EE879ACDED0A9A37EE889A8DED0B9A97
S214001C0076EEC78ACDED048A37EEC88A8DED058A52
S214001C1007EBC9070AEB091A28680DF069FFCDE93A
S214001C20000119EE900A0DF063FF00222C4B0DF018
S214001C30B7FF02460B46DDE900010DF0F9FD0EF098
S214001C4091FA206068680DF053FFCDE9000119EEA7
S214001C50100A0DF04DFF0022214B0DF0A1FF0246A9
S214001C600B46DDE900010DF0E3FD0EF07BFA606047
S214001C70DDED037A28EEA77A8DED047A68EE277AF2
S214001C80CDED057AD5ED006A76EEA96AC5ED006A57
S214001C90D5ED016A76EE896AC5ED016AD4ED006A73
S214001CA077EEA66AC6ED006AD4ED016A76EEC76ADC
S214001CB0C6ED016AD4ED006A76EEE77AC4ED007AE6
S214001CC0D4ED017A37EE877A84ED017A0835B8F1DB
S214001CD001087FF459AF0FB0BDEC048BBDE8F08F60
S214001CE00000E03F2DE9F0432DED048B9FB08646C3
S214001CF0884602F5847701FB03F207EBC20102ACCB
S214001D0003C984E8030007EB02126C4692E803005E
S214001D1084E803000EEBC3060EEB031503EB430249
S214001D200EEBC2020EEB43144FF0000919E10DF161
S214001D30100C9EE803008CE8030096ED006A08FB92
S214001D4009FC07EBCC01D1ED005A26EE257AD6ED3C
S214001D50016AD1ED013A66EEA37A37EE677A8DED29
S214001D60067A66EE233A65EEA65A73EEA53ACDEDF0
S214001D70073A95ED005A07EB0C1191ED006A25EE37
S214001D80062AD5ED014AD1ED015A64EEA57A32EE67
S214001D90672A8DED082A25EE255A66EE244A75EE4A
S214001DA0244ACDED094A92ED005A0CEB4C0007EBA5
S214001DB0C00090ED006A65EE062AD2ED015AD0ED1D
S214001DC0017A65EEA76A72EEE62ACDED0A2A25EEBE
S214001DD0275A66EE255A75EE255ACDED0B5A94ED28
S214001DE0003A07EB4C1C9CED006A23EE064A94ED85
S214001DF0015ADCED017A65EE276A34EE664A8DED0F
S214001E000C4A23EE273A26EE055A33EE055A8DED98
S214001E100D5A37EE041A8DED121A73EE851ACDEDB3
S214001E20131A37EE444A8DED184A73EEC53ACDEDD7
S214001E30193A72EE226ACDED146A74EEA57ACDEDEB
S214001E40157A32EE622A8DED162A74EEE55ACDED3D
S214001E50175A9EED006A31EE267A36EE077A8EED38
S214001E60007A9EED017A31EEA75A37EE055A8EEDCE
S214001E70015A9DED028A61EE084A76EE244ADDEDAF
S214001E80008A26EEA85A74EE854ACDED0E4A21EE5B
S214001E90885A37EE055A27EEA83A35EE035A8DEDE6
S214001EA00F5ADDED030A63EEA02A9DED010A25EE2A
S214001EB0803A72EE832ACDED102A20EEC43A22EE46
S214001EC0009A33EE493A8DED113A34EEE29A86EDF9
S214001ED0009A35EE439A86ED019A74EEA24AC4ED56
S214001EE0004A35EE035A84ED015A21EE285A36EEA2
S214001EF0056A66EE886A76EE266ACDED1A6A21EEE7
S214001F00A86A37EE067A67EE887A77EE277ACDEDFE
S214001F101B7A65EEA05A23EE806A35EEC66A8DED12
S214001F201C6A24EE007A62EE205A37EE657A8DED52
S214001F301D7A76EE865AC5ED005A77EE875AC5EDBD
S214001F40015A76EEC66AC2ED006A77EEC77AC2ED2F
S214001F50017A0EF1080E083608350832083409F101
S214001F6001099945FFF6E3AE1FB0BDEC048BBDE852
S214001F70F0832DE9F041054688460DF0A7FD41ECBB
S214001F80100B14F09DFD14F0BBFB57EC106B0424F3
S214001F9016E0032400E0022420460DF097FD3246AA
S214001FA03B460EF08DF858B12C4609E095FBF4F54B
S214001FB0434643F8084BC8F80450012D0CDD9846FC
S214001FC095FBF4F304FB1353002BEFD0022CE0D068
S214001FD0042CE0D00234DFE7BDE8F0812DE9F04FB5
S214001FE085B000900E4698460E9D02F584771468DC
S214001FF0E800FFF7A1FC84460023019348E0DDF8E3
S21400200004904FF0000A33E00CEBC10B9BED007A16
S21400201007EBC30090ED006A67EE066ADBED017A17
S214002020D0ED015A27EEA55A76EEC56ACDED026AC6
S21400203027EE257A66EE277A77EE277ACDED037AB5
S21400204092ED007A77EE266AC2ED006A92ED017A8A
S21400205077EE277AC2ED017A0131A94205DA06FB4E
S2140020600E339C42D0DC1B1BCEE7C1440AF1010AAA
S214002070AA450ADACE46009B03EBC9029CE8030099
S21400208082E8030000230121E7E7019B0133019367
S214002090019A42450EDA0023DDF80090AB42AEDA34
S2140020A009EBC2010CEBC30E03C98EE803004244E1
S2140020B00133F3E76046FFF747FC05B0BDE8F08F55
S2140020C02DE9F04F85B003900C4615461F460E9B33
S2140020D09B465BF808ABD3F8049009FB0AF8034666
S2140020E000EBC808B9F1010F1BD0039E0F9B0193AC
S2140020F0CDF800B03B4605FB0AF221463046FFF716
S214002100DFFF05FB07F304EBC30406EBC906B04587
S214002110ECD1AAF10203032B2DD8DFE803F00E174B
S2140021201E2594E8030083E8030005FB07F204EB92
S214002130C20408339845F4D1EBE74B460F9A29467C
S2140021400398FFF705FC05B0BDE8F08F4B460F9AE5
S21400215029460398FFF702FDF5E74B460F9A2946F6
S2140021600398FFF733FCEEE74B460F9A2946039891
S214002170FFF7B8FDE7E7CDF800A04B460F9A2946D3
S2140021800398FFF72BFFDEE72DE9F0472DED028BD6
S21400219004468A46DDF8289000F121084FEAC80870
S2140021A093B115461A46A5B11B68434514D3C2F829
S2140021B00080002D4AD02C60C5F804A0BAF1000FAC
S2140021C07DD04FF0000A3AE04046FFF7B5FB0546E3
S2140021D0EFE7C3F8008039E0C2F80080002535E05C
S2140021E050460DF073FC38A3D3E900230DF0D8FC5D
S2140021F006460F4620460DF069FC02460B46304662
S21400220039460DF0F7FD41EC180B41EC100B14F0BD
S21400221017FA51EC100B05F5847606EBCA060DF09E
S214002220A1FF3060B0EE480AF0EE680A14F040FBFA
S21400223051EC100B0DF096FF70600AF1010AA245F2
S214002240CEDB05F108012046FFF793FEB9F1000F3B
S21400225001D0C9F800802846BDEC028BBDE8F087A7
S21400226050460DF033FC1AA3D3E900230DF098FC7A
S21400227006460F4620460DF029FC02460B46304621
S21400228039460DF0B7FD41EC180B41EC100B14F07D
S214002290D7F951EC100B05F5847606EBCA060DF05F
S2140022A061FF3060B0EE480AF0EE680A14F000FBFA
S2140022B051EC100B0DF056FF70600AF1010AA245B2
S2140022C0CEDBBEE7AFF30080182D4454FB21194047
S2140022D0182D4454FB2119C02DE9F04383B0044661
S2140022E00F4615461E4691420BD000F1080301909A
S2140022F00093334601222846FFF7E2FE03B0BDE80E
S214002300F083814659F8080BC000FFF715FB80469E
S2140023100194CDF80090334601223946FFF7D0FEEF
S2140023202268D2004146284611F09EF94046FFF743
S2140023300BFBE3E708B50123FFF7CEFF08BD00005F
S2140023402DE9F04F2DED028B85B01D46002303933B
S21400235010F0010B2CD10E4690464410002200923D
S21400236003AB2046FFF710FF04EB440707EBD777D5
S2140023707F10039B03EBC7070C37F5B12B68BB42F6
S21400238020D32F604546F5B105F10C022A60039B69
S21400239013446B6003EBC403AB600023009303ABF2
S2140023A031462046FFF7F0FE002E00F08D8045E017
S2140023B04D48FFF7A4FA002548E03846FFF7BCFA78
S2140023C00546E0E72F60002540E00BF1010A504685
S2140023D00DF07CFB8046894620460DF077FB0246D2
S2140023E00B46404649460DF005FD00223F4B0DF0DA
S2140023F021FA39A3D3E900230DF0D2FB41EC180BE8
S21400240041EC100B14F01CF951EC100BAB684FEAC2
S214002410CB0803EBCB0B0DF0A5FECBF80000B0EE1F
S214002420480AF0EE680A14F043FA51EC100BAB6859
S21400243098440DF097FEC8F80400D34604EBD47316
S214002440BBEB630FC1DB109B03B11F60284605B0D2
S214002450BDEC028BBDE8F08F06F1010B58460DF07F
S21400246035FB8046894620460DF030FB02460B467B
S214002470404649460DF0BEFC00221C4B0DF0DAF932
S21400248017A3D3E900230DF08BFB41EC180B41ECAE
S214002490100B14F0D5F851EC100BAB684FEAC608D9
S2140024A003EBC6060DF05EFE3060B0EE480AF0EEB6
S2140024B0680A14F0FDF951EC100BAB6898440DF067
S2140024C051FEC8F804005E4604EBD473B6EB630F07
S2140024D0C2DBB8E7AFF30080182D4454FB21094057
S2140024E0182D4454FB2109C090A801000000E03FCD
S2140024F0F0B58DB006460C46174603685B68EBB928
S2140025003068056872682146FFF714FF7368D3EDDC
S214002510007ACDED007A93ED017A8DED017A77EEB3
S214002520876AC7ED006A07EBC50377EEC77AC3ED87
S214002530007A00227A605A60012364E03548FFF78B
S214002540DEF9DDE7746804EBC30108AA03C982E874
S2140025500300E91A04EBC104D4ED007ACDED0A7A43
S214002560D4ED016AF1EE665ACDED0B5A9DED087A70
S21400257037EE876A8DED066ADDED096A35EEA65AF6
S2140025808DED075A37EE677A8DED047A76EEE56ABA
S214002590CDED056AB26803F10050013802EBC002C7
S2140025A0D2ED007A67EE275AD2ED014A26EEA44A0B
S2140025B075EEC45ACDED025A27EE247A66EEA76A67
S2140025C077EE267ACDED037A76EE256A07EBC30220
S2140025D0B6EE007A66EE876AC2ED006A75EE276A86
S2140025E066EE876AC2ED016A36EE656A07EBC101E0
S2140025F026EE076A81ED006A77EEC57A67EE877A7F
S214002600C1ED017A013305EBD572B3EB620F99DDAC
S2140026100DB0F0BDACA80100FEE700002DE9F043C8
S21400262091B01546189C6608721C9A4240F0C68007
S21400263081460F468C4200D22746A7425CD04FF018
S2140026400008B8F1000F59D0CDF8308000238DF87F
S2140026503C3001230D930E940C98002800F0A980BE
S214002660B8F1000F53D0202C12D0402C10D0802C64
S2140026700ED0B4F5807F0BD0B4F5007F08D0B4F54B
S214002680806F05D0B4F5006F02D0B4F5805F4CD1F2
S214002690202C40F08C801023ADF8183000230793D0
S2140026A0474B9A89ADF824209A6808925B6807938E
S2140026B02023ADF82830434B0B930121A000FFF7F1
S2140026C03FF90246029001238DF8143003930494D8
S2140026D0002840D000230C9906A802F0DBFA0299E5
S2140026E00B682B6000226A6005EBC6034968196018
S2140026F05A600121022046E0C846A2E70121A00058
S214002700FFF71EF90C9001238DF83C30A1E74FEA45
S21400271087084246494610F0A7FFE21B92000021B8
S2140027200C98404410F0C7FF9DE70C9E06AB009344
S21400273000231A4619462046FFF702FE044640B11B
S2140027402A463146FFF7D4FE2046FFF7FDF8002460
S21400275021E01D4C1FE008B1DBB20BB91A4C1AE0A1
S214002760FFF7F2F8FAE7029B05EBC10C03EB8002D9
S2140027701268CCF80020421C03EB82031B68CCF8DE
S2140027800430023001318E42EDD8029810B19DF827
S21400279014304BB900240C9810B19DF83C3053B956
S2140027A0204611B0BDE8F083FFF7CEF8F2E7074CFD
S2140027B0F1E7054CEFE7FFF7C7F8F1E7044CEFE762
S2140027C0FCA901007CA9010016FCFFFF08FCFFFF26
S2140027D011FCFFFF2DE9F04F89B00290079101929E
S2140027E01E4600230693B24600F0F2BF03924FF057
S2140027F0000BDE46CFE04FF080440020E2E06FF0B2
S21400280000417F1842F10001EDE0B3F1004F40F0C7
S214002810F0806FF00047ECE06FF00042A41843F140
S2140028200002FBE06FF00040121844F1000008E1DF
S2140028306FF000400CE1022210E14FF080420024CD
S21400284017E16FF0004289184CF1000420E1B3F163
S214002850004F40F023816FF000411FE14FF08048A9
S2140028604FF0000921E16FF00044091940F100041F
S2140028702AE1B2F1004F40F02E816FF000442AE1C9
S21400288001212FE14FF080414FF0000C33E16FF053
S2140028900041761843F100023AE14FF080424FF0D3
S2140028A0000845E16FF000429B1841F100064CE13C
S2140028B04FF080404FF000085BE16FF000401B18BF
S2140028C041F1000462E1B2F1004F40F066816FF022
S2140028D0004462E14FF080414FF000086DE16FF078
S2140028E00041521843F1000474E1B0F1004F40F08B
S2140028F078816FF0004474E14FF080434FF0000899
S2140029007FE16FF00043C01842F1000486E1B1F1A8
S214002910004F40F08A816FF0004486E14FF080421D
S2140029204FF0000891E16FF00042891840F1000472
S21400293098E1B3F1004F40F09C816FF0004498E1BD
S2140029404FF0804C4FF00008A4E16FF000401B18D9
S21400295041F10000ACE1B2F1004F40F0B0816FF001
S2140029600040ACE14FF080440026B7E16FF0004035
S2140029701B1841F10000DDE1B2F1004F40F0E081AC
S2140029806FF00043DCE10025E3E14FF40061ECE189
S2140029909B440EF1010E019B9E4580F2EB81029B4B
S2140029A013F90E30039A9B1A139A9A42F1DC129A84
S2140029B093404FEADA72B2EBD37F3FF41CAFD44CAD
S2140029C04FF0FF30D9174FEAEA750AFB01F103FB17
S2140029D00512AAFB03710A443F1942EB0002114696
S2140029E0002AFFF60CAFFF0F47EA410753453FF4B6
S2140029F00CAF47F07F46F51B760106F180564FEA8E
S214002A00E679314606FB09F2A6FB064314F180443C
S214002A1043EB42031A46002BFFF6FEAEE40F44EAF1
S214002A20420423464FEAE47CA04604FB0CF4A3FBD6
S214002A30032012F1804240EB44042046002CFFF6AF
S214002A40F1AED20F42EA4000B3F1004F3FF4F0AED1
S214002A5000F0030480103FF5EEAE0122944200DD44
S214002A600130F20FB2EBD37F3FF4E7AEA84A4FF047
S214002A70FF3406FB0CFC08FB09CCA1FB0818C44479
S214002A8089184CEB040C6446BCF1000FFFF6D9AE77
S214002A90C90F41EA44019E423FF4D9AE0A187FF5B9
S214002AA0DDAEDFF86C824FF0FF39D417DFF864C272
S214002AB0A2FB0C100CFB040011EB080140EB090014
S214002AC004460028FFF6CFAEC90F41EA44049149F8
S214002AD08A423FF4CEAE1C4404F0010263103FF578
S214002AE0CFAE00218A4200DD0133F6187FF5CAAE6C
S214002AF087494FF0FF3CF017874AA6FB026302FBAC
S214002B000033761843EB0C031A46002BFFF6BFAED5
S214002B10F60F46EA4206804C344415F0807C01D01D
S214002B204FF0FF3C002CBFF6B8AE794A4FF0FF38A6
S214002B30E6177A48A4FB003100FB06119B1841EB10
S214002B4008010E460029FFF6ADAEDB0F43EA46034A
S214002B5003EA0C0324EA0C0483EA040215F0007C62
S214002B6001D04FF0FF3C002ABFF6A2AE68484FF0F7
S214002B70FF38D6176A49A2FB013401FB06411B1831
S214002B8041EB08010C460029FFF697AEDB0F43EA3F
S214002B904404634B9A423FF496AE0CEA040422EADD
S214002BA00C00604015F0806C01D04FF0FF3C002810
S214002BB0BFF690AE56494FF0FF38C617594BA0FBEC
S214002BC0032403FB0643521843EB08031C46002B62
S214002BD0FFF685AED20F42EA4404524B98423FF4C9
S214002BE084AE0CEA040420EA0C01614015F0006C87
S214002BF001D04FF0FF3C0029BFF67EAE444B4FF0AD
S214002C00FF38CE17484AA1FB020402FB0642C01852
S214002C1042EB08021446002AFFF673AEC00F40EAE5
S214002C204404414B99423FF472AE0CEA040421EA94
S214002C300C03634015F0805C01D04FF0FF3C002B86
S214002C40BFF66CAE324A4FF0FF38DC17374EA3FBA8
S214002C50061006FB0400891840EB0800044600280E
S214002C60FFF661AEC90F41EA4404304A93423FF48E
S214002C7060AE0CEA040423EA0C02624015F000562B
S214002C8001D04FF0FF36002ABFF65AAEDFF880C0FC
S214002C904FF0FF38D017264CA2FB043104FB00117E
S214002CA013EB0C0341EB080108460029FFF64DAE76
S214002CB0DB0F43EA40001E4B9A423FF44CAE3040D6
S214002CC022EA0602424015F0804501D04FF0FF355B
S214002CD0002ABFF647AE0E4C4FF0FF36D017010164
S214002CE041EA127113019B1A61EB0001C90041EA27
S214002CF05371DB009B1840EB0101DB1849411B199F
S214002D0046EB010108460029FFF630AE12E000BF90
S214002D10010000C0ABAAAA2A94A8F5707BBEAF63D8
S214002D20F2CBA24D6CAC162FA4AA5211B72A5802A9
S214002D3011FE0A00DB0F43EA4003F22A3FF41CAE02
S214002D402B4022EA05056B40002F7FF41CAE4FF0A7
S214002D50FF3525F0004223EA05035340C3F30B0278
S214002D601B133FF512AE40F2FF718A427FF710AE9A
S214002D7001330DE6BBF1000F00F07181BBFA8BF357
S214002D80C3F1230205920BFA03FB0BF1004B4FEA4B
S214002D90EB726FF000431BEB030B42F10002002ABC
S214002DA0C0F25F81012100231BEB010B42EB030203
S214002DB0D30F13EB0B0B42F100024FEA5B0B4BEA0F
S214002DC0C27B5846BBF1000FC0F24F81D9494FF085
S214002DD0FF354FEAE0788346D74B424203FB082292
S214002DE0A0FB033414445B1844EB05042546002C72
S214002DF0C0F23F81DB0F43EA450310F13C3F00F091
S214002E003E8103F15A324FEAD079D60FB6EBD07F27
S214002E1000F03C81C74F4FF0FF3ED117154600FB30
S214002E2001F402FB0844ABFB023C6444DB1944EBB0
S214002E300E04A446002CC0F22E81DB0F43EA4C039E
S214002E40904200F02E81C3F10053B6EBD37F00F022
S214002E502F81B84C4FF0FF37DE1703FB01F102FB62
S214002E600611A3FB053529441B1941EB07010E4645
S214002E700029C0F22181DB0F43EA46031D46990074
S214002E80B3F1005FC0F21E816FF00043B5F1005F42
S214002E90C0F21A81002421404B40B5F1604F00F388
S214002EA016814FF00046B5F1604F00F31281002105
S214002EB00B4073401A44D70FB9EBD27F00F00C8159
S214002EC09C4E4FF0FF3ED517114600FB05F402FB63
S214002ED00844ABFB023C64449B1944EB0E04A44636
S214002EE0002CC0F2FE80DB0F43EA4C03904200F059
S214002EF0FE80C3F10053B7EBD37F00F0FF808D4C0C
S214002F004FF0FF36DF1703FB05FC02FB07C5A3FBEC
S214002F1001173D44091945EB06052E46002DC0F263
S214002F20F180C90F41EA46019A4200F0F1808B0019
S214002F30B1F1005FC0F2F6806FF00045B1F1005FBE
S214002F40C0F2F280002423405D40B1F1604F00F3F0
S214002F50EE804FF00046B1F1604F00F3EF800023A3
S214002F601D4075402A44D60FB9EBD27F00F0E980A9
S214002F70704D4FF0FF37D417114600FB04F302FBE9
S214002F800838ABFB023CE0445B1948EB07084746B1
S214002F90B8F1000FC0F2D980DB0F43EA4707904232
S214002FA000F0D980C7F10057B6EBD77F00F0DA8083
S214002FB0604B4FF0FF30FD1707FB04F602FB05647D
S214002FC0A7FB01152C44C91844EB00042046002C2E
S214002FD0C0F2CC80C90F41EA4001BA4200F0CC8072
S214002FE08B00B1F1005FC0F2D1806FF00044B1F108
S214002FF0005FC0F2CD80002003405C40B1F1604F1E
S21400300000F3C9804FF00045B1F1604F00F3C58072
S21400301000231C406C4022444FEA4208B2F1804F25
S214003020C0F2BE806FF00043B2F1804FC0F2BA80AB
S214003030002108EA010888EA0308B2F1404F00F3CD
S214003040B4804FF00043B2F1404F00F3B08000224E
S21400305008EA020888EA03084FF0000E8EE12023F3
S2140030608EE64FF0FF310B469EE64FF0804100257E
S214003070AFE66FF000429B1844F10005BAE6B0F1E7
S214003080004F7FF4BEAE6FF00043BAE64FF08047C5
S2140030904FF0000EC1E66FF00047DB1944F1000C5C
S2140030A0CBE6B0F1004F7FF4CEAE6FF00043CAE639
S2140030B04FF080440027CFE66FF000441B1941F123
S2140030C00006D8E60023E1E64FF0FF34E3E60026EC
S2140030D0E9E64FF0FF31EBE64FF080464FF0000E8A
S2140030E0F1E66FF000469B1944F1000CFBE6B0F1E8
S2140030F0004F7FF4FEAE6FF00043FAE64FF08044D8
S2140031000026FFE66FF00044091945F1000608E7BF
S214003110B2F1004F7FF40BAF6FF000416FF0030386
S2140031200D460BE7002509E74FF0FF340BE70026B6
S21400313011E700BF010000C0C4C3C3C34FF0FF3394
S2140031400EE74FF08045002715E76FF000455B1946
S21400315048F1000720E7B0F1004F7FF423AF6FF08F
S21400316000471FE74FF08043002024E76FF000433E
S214003170C91844F100002DE7B2F1004F7FF430AFDC
S2140031806FF000416FF003030C4630E700242EE793
S2140031904FF0FF3030E7002536E74FF0FF3338E7D3
S2140031A0002341E74FF0FF3143E700234BE74FF0A2
S2140031B0FF324DE74FF080410024F9E06FF0004108
S2140031C07F1842F1000004E1B3F1004F40F00781A0
S2140031D06FF0004703E16FF00042A41843F10002CD
S2140031E012E16FF00040121844F100001FE16FF08A
S2140031F0004023E1022227E14FF0804200242EE126
S2140032006FF0004289184CF1000437E1B3F1004F2B
S21400321040F03A816FF0004136E14FF080494FF0C0
S214003220000B38E16FF00044091940F1000441E159
S214003230B2F1004F40F045816FF0004441E10121BA
S21400324046E14FF080414FF0000C4AE16FF000423B
S214003250B61843F1000251E14FF080424FF00009EA
S2140032605CE16FF000429B1841F1000663E14FF00D
S21400327080404FF0000971E16FF000401B1841F1EB
S214003280000478E1B2F1004F40F07C816FF000441A
S21400329078E14FF080414FF0000983E16FF0004184
S2140032A0521843F100048AE1B0F1004F40F08E81DD
S2140032B06FF000448AE14FF080434FF0000995E13B
S2140032C06FF00043C01842F100049CE1B1F1004FDA
S2140032D040F0A0816FF000449CE14FF080424FF038
S2140032E00009A7E16FF00042891840F10004AEE142
S2140032F0B3F1004F40F0B2816FF00044AEE14FF002
S214003300804C4FF00009BAE16FF000401B1841F105
S2140033100000C2E1B2F1004F40F0C6816FF00040FD
S214003320C2E14FF080440026CDE16FF000401B184C
S21400333041F10000DFE1B2F1004F40F0F5816FF09F
S2140033400043F1E10022F8E14FF08041002401E261
S2140033506FF000415B1842F100000CE2B8F1004F3C
S21400336040F00F826FF000400BE2013213E26FF084
S2140033707F00149B049A98540EF1010E019B9E4503
S21400338080F21C82CDF810E0029B13F90E30039AEF
S2140033909B1A139A9342C0F20C82129A93404FEAF9
S2140033A0DA72B2EBD37F3FF405AFD6494FF0FF3465
S2140033B0D8174FEAEA720AFB00F003FB0202AAFBE8
S2140033C0037002447F1842EB04021046002AFFF600
S2140033D0F5AEFF0F47EA400753453FF4F5AE47F01A
S2140033E07F46F51B760106F180564FEAE67B3146AE
S2140033F006FB0BF2A6FB064314F1804443EB4203A4
S2140034001A46002BFFF6E7AEE40F44EA42042346D2
S2140034104FEAE47CA14604FB0CF4A3FB032012F164
S214003420804240EB44042046002CFFF6DAAED20F72
S21400343042EA4000B3F1004F3FF4D9AE00F0030477
S21400344080103FF5D7AE0122944200DD0130F20F26
S214003450B2EBD37F3FF4D0AEAA4A4FF0FF3406FB60
S2140034600CFC09FB0BCCA1FB0919CC4489184CEBCE
S214003470040C6446BCF1000FFFF6C2AEC90F41EA69
S21400348044019E423FF4C2AE0A187FF5C6AEDFF88E
S21400349074924FF0FF3BD417DFF86CC2A2FB0C10FF
S2140034A00CFB040011EB090140EB0B00044600285E
S2140034B0FFF6B8AEC90F41EA440493498A423FF486
S2140034C0B7AE234403F001025B103FF5B8AE00210F
S2140034D08A4200DD0133F6187FF5B3AE89494FF016
S2140034E0FF3CF017894AA6FB026302FB00337618FE
S2140034F043EB0C031A46002BFFF6A8AEF60F46EA7F
S2140035004206824C344415F0807C01D04FF0FF3CDC
S214003510002CBFF6A1AE7B4A4FF0FF39E6177C4879
S214003520A4FB003100FB06119B1841EB09010E4677
S2140035300029FFF696AEDB0F43EA460303EA0C03C8
S21400354024EA0C025A4015F0007C01D04FF0FF3CF4
S214003550002ABFF68CAE6B484FF0FF39D6176D4980
S214003560A2FB013401FB06411B1841EB09010C4686
S2140035700029FFF681AEDB0F43EA4404654B9A420E
S2140035803FF480AE0CEA040422EA0C00604015F01A
S214003590806C01D04FF0FF3C0028BFF67AAE594948
S2140035A04FF0FF39C6175C4BA0FB032403FB064312
S2140035B0521843EB09031C46002BFFF66FAED20FE2
S2140035C042EA4404544B98423FF46EAE0CEA0404BC
S2140035D020EA0C01614015F0006C01D04FF0FF3C72
S2140035E00029BFF668AE474B4FF0FF39CE174B4A5F
S2140035F0A1FB020402FB0642C01842EB0902144675
S214003600002AFFF65DAEC00F40EA4404434B9942E1
S2140036103FF45CAE0CEA040421EA0C03634015F0A8
S214003620805C01D04FF0FF3C002BBFF656AE354A0B
S2140036304FF0FF39DC173A4EA3FB061006FB0400DA
S214003640891840EB090004460028FFF64BAEC90F68
S21400365041EA4404324A93423FF44AAE0CEA040478
S21400366023EA0C02624015F0005601D04FF0FF36F8
S214003670002ABFF644AEDFF88CC04FF0FF39D017F3
S214003680284CA2FB043104FB001113EB0C0341EBA6
S214003690090108460029FFF637AEDB0F43EA400073
S2140036A0204B9A423FF436AE304022EA06024240B1
S2140036B015F0804501D04FF0FF35002ABFF631AE39
S2140036C0104C4FF0FF36D017010141EA127113017A
S2140036D09B1A61EB0001C90041EA5371DB009B189D
S2140036E040EB0101DB1849411B1946EB0101084676
S2140036F00029FFF61AAEDB0F43EA4003F22A3FF436
S2140037001AAE11E0010000C0ABAAAA2A94A8F57070
S2140037107BBEAF63F2CBA24D6CAC162FA4AA52119F
S214003720B72A580211FE0A002B4022EA05056B4014
S214003730002F7FF407AE4FF0FF3222F0004523EA59
S21400374002035D40EB0FB3EBD87F3FF4FDAD2B4992
S2140037504FF0FF344FEAE873EA1705FB03F308FB64
S2140037600232A5FB083002445B1842EB0402104606
S214003770002AFFF6EDADDB0F43EA4000A8453FF414
S214003780EDAD0122059B9A40013A02EA0004521070
S21400379018413FF5EAAD944200DD0130803810F163
S2140037A07F0FFFF6E4AD7E2801DC40B2E1E57F2026
S2140037B0DFE58023149A02F80E30DDE5029B019ABD
S2140037C013440293149B13441493069B01330693ED
S2140037D0069B079A93420DDA029C94F90020012377
S2140037E001988342BFF602A8E1568A42B8BF0A464D
S2140037F00133F6E709B0BDE8F08F00BF010000C056
S2140038002DE9F04F8FB00B9008910A9209931D9BFB
S214003810043B0393189B1AB2199B1BB2C2EA0242DE
S2140038200092C3EA034A0023079379E14FF00008A9
S214003830C34684E10422019C21460DA80FF014FF24
S2140038400194251D0D9F2AFA87FB0422029C21461F
S2140038500DA80FF009FF029404F104090D9C4FEA2D
S21400386037282AFA88F8009B23FA84F7042203995B
S21400387069180DA80FF0F8FE0D9B4FEA3424009A45
S21400388022FA84F427FB0B662AFA83FB24FB0866DD
S21400389006964FEA33262AFA86F6042229460DA80B
S2140038A00FF0E2FE019901F108080D9D059B27FB2C
S2140038B00B3724FB06762AFA85FB042249460DA818
S2140038C00FF0D2FE029800F108090D9F4FEA352549
S2140038D02AFA85F5009A22FA87F40422039B08EB5D
S2140038E003010DF1340C60460FF0BEFE0D9B4FEA4F
S2140038F03727009A22FA87F7069824FB0B0B2AFA3A
S21400390083FCCDF814C027FB05B506954FEA332B8C
S2140039102AFA8BFB042241460DF1340C60460FF068
S214003920A3FE019901F10C080D9D059824FB006487
S21400393027FB0B4405942AFA85FB042249460DAE64
S21400394030460FF091FE029800F10C090D9C4FEAEC
S21400395035252AFA85F6009D25FA84F70422039B6E
S21400396008EB03010DF1340C60460FF07DFE0D9B55
S2140039704FEA3424009525FA84F4069A27FB0B2593
S2140039802AFA83FB24FB06564FEA33252AFA85F5E6
S214003990042241460DF1340C60460FF065FE019995
S2140039A001F1100CCDF804C0DDF83480059A27FB31
S2140039B00B2724FB05742AFA88F7042249460DF1E2
S2140039C0340C60460FF050FE029800F1100202928E
S2140039D00D9D4FEA38282AFA88F8009B23FA85F9C5
S2140039E004220198039941180DA80FF03DFE0D9A88
S2140039F04FEA3525009B23FA85F329FB07662AFA4A
S214003A0082F523FB08664FEA32222AFA82F229FB65
S214003A10054423FB02420592049B103304931D9B2E
S214003A200F3B049A93423FF705AFB346DDF8148088
S214003A301446029E019ADDF860C0199F1D9D0DE098
S214003A4092F9000038445157394416F9013B634453
S214003A5003FB00BB03FB018801320134AC42EFDB01
S214003A601C9B23EAE3730BFA03FB4FEAEB721B99EA
S214003A70C8178C460BFB00F10CFB0211ABFB0CB914
S214003A801BF1804B41EB09014FEADB7242EA41022F
S214003A901C9900295DDD00250121A940013902EAB3
S214003AA001044E102A4156D43746BC4200DD01328E
S214003AB008FA03F3DC1703FB00F01B9F07FB040068
S214003AC0A3FB0C3413F1804340EB0400DB0F43EA06
S214003AD0400319402B4140D4B14200DD01331A990E
S214003AE00A440B441F998A42B8BF0A4620998A4264
S214003AF0A8BF0A461F998B42B8BF0B4620998B4237
S214003B00A8BF0B460998014601F8022B4370089B94
S214003B101D9A03EB42030893079B02330793099110
S214003B201E9B013B079A934219DD0A9A1346002A08
S214003B303FF47CAE53F808BBD2F804800A93089B87
S214003B4001930B9B0293002304935E46CDF81480EA
S214003B5065E74D42A0E7771CA7E70136BCE71E9B4A
S214003B6013F0010F00F0DE800A9B002B00F095801A
S214003B701C684FF00009CDF80490009D0B9FDDF8FF
S214003B8020801D9B0F3B019A934240F388800422BD
S214003B9041460DA80FF068FD08F1040300930D9E42
S214003BA02AFA86FB042239460DA80FF05DFD07F1C0
S214003BB004090D9B4FEA36262AFA86F625FA83F282
S214003BC04FEA332325FA83F322FB0B4423FB0644F8
S214003BD0042200990DA80FF047FD08F10803009392
S214003BE00D9E2AFA86FB042249460DA80FF03CFDDE
S214003BF007F108090D9B4FEA36262AFA86F625FABB
S214003C0083F24FEA332325FA83F322FB0B4423FB8C
S214003C100644042200990DA80FF026FD08F10C03B7
S214003C2000930D9E2AFA86FB042249460DA80FF043
S214003C301BFD07F10C090D9B4FEA36262AFA86F67D
S214003C4025FA83F24FEA332325FA83F322FB0B4B44
S214003C5023FB06BB042200990DA80FF005FD08F112
S214003C6010080D9C2AFA84F6042249460DA80FF087
S214003C70FBFC10370D9B4FEA34242AFA84F225FA0F
S214003C8083F14FEA332425FA84F421FB06BB24FB98
S214003C9002B4019B1033019373E7002469E7914651
S214003CA039464046189E199F1D9DA9450ADA10F907
S214003CB0013B3B4411F9012B324402FB034409F15A
S214003CC00109F2E71C9B23EAE37304FA03F3DA170D
S214003CD01B99CC1701FB02F203FB0422A1FB033461
S214003CE013F1804342EB0404DB0F43EA44031C9ABF
S214003CF0002A1BDD002201219140013903EA010060
S214003D004910134114D4884200DD01331A9A134433
S214003D101F9A9342B8BF1346209A9342A8BF1346F1
S214003D20099A137000200FB0BDE8F08F5242E2E708
S214003D300131E8E72DE9F04F8BB00C469046149F12
S214003D40DDF854A0DDF858B0DDF864901A9E1D68C2
S214003D5022E023690893E3680793D9F80C300693AA
S214003D60DAF800300593D8F804300493D8F8003019
S214003D700393A36802936368019323680093334612
S214003D80189A59463846FFF73BFDDAF800301F44CC
S214003D90D9F80C301E44013D002DDAD100200BB0BE
S214003DA0BDE8F08F0020704730B54FF0000E1DE0E4
S214003DB032F81EC04FEA9C0C0EF1010332F81330A5
S214003DC09B0850F82C4050F8235040F82C5040F8F0
S214003DD023400CF1010C50F82C40013350F82350CE
S214003DE040F82C5040F823400EF1020E7145DFD803
S214003DF030BD2DE9F0412DED028B90B00646084609
S214003E00358801EB850774684FEA550801EB880E84
S214003E1007EB880CED083A460B46CFE093ED005AC8
S214003E208DED0C5A93ED016A8DED0D6A93ED021A35
S214003E308DED0E1A93ED037A8DED0F7A92ED000A52
S214003E408DED080AD2ED010ACDED090A92ED023A8F
S214003E508DED0A3AD2ED031ACDED0B1A9EED002A2F
S214003E608DED042ADEED012ACDED052A9EED024AEF
S214003E708DED064ADEED034ACDED074ADCED005A2D
S214003E80CDED005ADCED016ACDED016ADCED023ABB
S214003E90CDED023ADCED037ACDED037A35EE008AFD
S214003EA083ED008A36EE208A83ED018A31EE038A9E
S214003EB083ED028A37EE218A83ED038A35EE405A77
S214003EC08DED085A36EE606A8DED096A31EE433A9A
S214003ED08DED0A3A37EE617A8DED0B7A72EE251A81
S214003EE0CEED001A72EEA61ACEED011A74EE231A63
S214003EF0CEED021A74EEA71ACEED031A75EEC25A6C
S214003F00CDED005A76EEE26ACDED016A73EEC42A74
S214003F10CDED022A77EEE47ACDED037AD4ED004AB1
S214003F2094ED014A65EE243A26EE042A26EE246A2B
S214003F3025EE045A73EE823AC2ED003A36EE456A32
S214003F4082ED016A25EE846A26EEA45A66EE846A3D
S214003F5065EEA45A36EE456A8CED006A76EEA56AE2
S214003F60CCED016A94ED026AD4ED035A23EE065AAC
S214003F7067EE254A27EE067A63EE256A35EE245A62
S214003F8082ED025A37EE667A82ED037A62EEA56A11
S214003F9027EE865A67EEA57A22EE867A76EEC56A10
S214003FA0CCED026A77EE877ACCED037A013D1034C9
S214003FB010320CF1100C0EF1100E1033002D7FF4A1
S214003FC02DAF1FFA88F802237268414600F0D6FA31
S214003FD0022372684146384600F0D0FA10B0BDECB5
S214003FE0028BBDE8F0812DE9F04F2DED048B95B0E6
S214003FF0054606900C46079103885B0801EB830292
S214004000039201EBC3010E46049101EB8300059079
S214004010171FA0F1040C0CEB83016D685B0802937C
S214004020234694ED007A3446A6F10408D6ED007ACD
S21400403037EE272A37EE677AD3ED017AD6ED016A96
S21400404077EEA62A77EEE67A92ED013A73EE073A15
S214004050D0ED016A73EEE63ACDED103AD2ED005A95
S21400406037EEE54A90ED006A34EE064A8DED114AC9
S21400407072EE654A74EEC64ACDED0C4A32EEC35A6D
S21400408035EE665A8DED0D5A37EE437A36EE877A60
S2140040908DED087A75EEA77A77EEC67ACDED097AB9
S2140040A075EE825A36EE256A9E461E46083683ED23
S2140040B0006AD2ED016A76EEA26A034690ED016AC6
S2140040C076EE866ACEED016A10460832C0ED003AFA
S2140040D080ED014A20460830C4ED004A84ED015ABE
S2140040E01C46083384ED007AC4ED017A05F1080A0F
S2140040F005F1100405F1180E029DA5F1020B4FEA1A
S2140041005B0B22E1D6ED006AD0ED007A76EEA73A98
S21400411076EEE76A96ED017AD0ED017A37EE274A19
S21400412037EE677AD2ED017A37EEA62A93ED013A9A
S21400413032EE432A8DED102AD2ED004A77EE645A0D
S21400414093ED006A75EE865ACDED115A73EEE42AA9
S21400415072EEC62ACDED0C2A34EE675A35EE435A77
S2140041608DED0D5A76EEE76A33EE263A8DED083A77
S21400417034EE877A77EE467ACDED097A74EEA34A66
S21400418036EE246A3546083586ED006A019592EDCE
S214004190017A37EE047AD3ED016A37EE267A86ED99
S2140041A0017A57ED016A1CED017A76EE878A76EE83
S2140041B0C76A97ED007A9CED000A77EE001A37EE94
S2140041C0400AD8ED000A91ED001A30EEC19A39EE99
S2140041D0264A8DED124A18ED018A70EE483A11ED26
S2140041E0017A73EE873ACDED133A78EEC84A74EE4C
S2140041F0C74ACDED0E4A31EEE06A36EE416A8DEDE5
S2140042000F6A79EE666ACDED0A6A37EE487A37EEBF
S214004210407A8DED0B7A70EEA10A31EE201AA7F1E6
S214004220080587ED001A58ED011A71EEA81A11ED6F
S214004230011A71EE811A47ED011A0AF10809DAED42
S214004240001A9AED011A62EE210A25EE810A65EE41
S214004250A15A22EE012A70EE800A02F1080AC2ED87
S214004260000A75EEC25AC2ED015A63EE815A24EE78
S214004270212A24EE014A63EEA13A75EEC25AA8F14D
S2140042800806C8ED005A34EE234A08ED014A94EDBC
S214004290004AD4ED015A103462EE843A25EE252AFF
S2140042A025EE045A62EEA52A73EE823A02460832DA
S2140042B0C0ED003A35EE625A80ED015A26EE445AB9
S2140042C064EEA53A64EE844A26EE256A75EE635AD5
S2140042D0ACF10807CCED005A36EE646A0CED016AC4
S2140042E09EED006ADEED015A0EF1180E23EE065A18
S2140042F067EEA54A67EE867A23EE253A35EE245A0F
S2140043001846083083ED005A77EEC37AC3ED017A7B
S21400431067EE257A26EE865A66EEA56A27EE067AB8
S21400432077EEC57AA1F1080CC1ED007A36EE877AF1
S21400433001ED017A0BF1FF3B034610465246CA4692
S2140043406146BC46B0462F46019EBBF1000F7FF487
S214004350D9AE96ED004AD0ED004A34EE242A34EE6B
S214004360644A96ED015AD0ED017A75EE272A35EEAD
S214004370675AD2ED017A77EE845AD3ED014A75EE8C
S214004380E45ACDED105A92ED003A75EE436AD3ED3D
S214004390003A76EEA36ACDED116A32EE436A36EE47
S2140043A0636A8DED0C6A32EEE77A37EE647A8DED4D
S2140043B00D7A34EE674A74EE844ACDED084A33EE41
S2140043C0055A75EE637ACDED097A33EE023A73EE4E
S2140043D0833AC6ED003A92ED015A35EE225A93ED35
S2140043E0014A35EE045A86ED015ADAED003A9AEDA6
S2140043F0014A25EEA35A26EE843A66EEA36A65EED7
S214004400845A35EE035A82ED005A76EEE56AC2ED1E
S214004410016A94ED005AD4ED015A66EE056A27EE5D
S214004420254A27EE057A26EE256A76EE846AC0EDE2
S214004430006A37EE467A80ED017A9EED006ADEED80
S214004440016A24EE867A67EEA65A67EE867A64EEEE
S214004450A64A37EE257A83ED007A77EEE47AC3ED46
S214004460017ABDF808400423069D6A68214607982D
S21400447000F084F804236A682146039800F07EF86A
S21400448004236A682146049800F078F804236A68D2
S2140044902146059800F072F815B0BDEC048BBDE817
S2140044A0F08F2DE9F04106460C46174698460588DB
S2140044B0012A0FD0B5F5807F21D025D8402D2AD0EF
S2140044C019D9802D34D0B8F1000F36D1012F3AD04B
S2140044D0BDE8F08101F1040C002109E0DCED007A72
S2140044E0F1EE677A63460CF1080CC3ED007A0131F1
S2140044F0A942F3D3DEE7102D1AD0202DE3D12146B2
S2140045003046FFF770FDDEE7B5F5006FF7D009D946
S214004510B5F5805FD7D1012372682946204600F0A2
S2140045202DF8D0E7B5F5007FF5D0B5F5806FCAD188
S21400453021463046FFF75DFCC5E7B268B1892046E4
S214004540FFF732FCC2E707EE905AF8EE677AF7EE0E
S214004550006A86EEA77A00230DE0D4ED007A67EEB7
S214004560877AC4ED007AD4ED017A67EEC77AC4ED97
S214004570017A08340133AB42EFD3A9E72DE9F04FB7
S2140045802DED0E8B8DB08146079108920B93069108
S214004590069B4FEAD30A4FF0000E0EEB0A010EEB15
S2140045A04A030AEB030503EB4A020AEB020602EB98
S2140045B04A070AEB070B4FEACE0809EBCE0090ED50
S2140045C0007A4FEAC20C09EBC202D2ED007A77EE0F
S2140045D0276A37EE677ACC00019409EBC101029195
S2140045E0D1ED005AF10009EBC6060396D6ED007A27
S2140045F035EEA76A75EEE75ADE0009EBC30393EDC6
S214004600005AFC00049409EBC707D7ED007A75EE54
S214004610274A75EE677AEC00059409EBC5050995FF
S214004620D5ED003A4FEACB040A9409EBCB0B9BED91
S214004630004A33EE845A73EEC43A76EEE40A76EE17
S214004640A46A36EE451A36EE056A36EE865A80EDD0
S214004650005A76EEC66AC2ED006A08F10408C8443D
S21400466098ED006A0CF1040CCC44DCED006A36EEE2
S214004670265A76EE664A019C04344C4494ED006A51
S21400468004314944D1ED006A36EE263A36EE666AC3
S21400469004364E4496ED004A049A151D4D44D5ED59
S2140046A0006A34EE262A34EE664A059A04324A44F4
S2140046B0D2ED006A0A9804304844D0ED002A76EE1F
S2140046C0A21A76EEE26A75EE422A35EE025A33EE0A
S2140046D0612A33EE213A75EE031AC8ED001A35EE5C
S2140046E0435A8CED005A30EE825A83ED005A30EE73
S2140046F0C23A87ED003A32EEC15A86ED005A31EEE4
S214004700225A85ED005A35EEE35ADFEDF12A25EE02
S214004710225A75EEA35A65EEA25A36EE663A23EE94
S214004720223A76EE266A66EEA26A77EE453A37EECB
S214004730057A37EEE55A77EEA57A74EEC35A34EE6C
S214004740836A74EE664A74EE266A37EE264A029B41
S21400475083ED004A37EE667A8BED007A33EEA47A64
S214004760039E86ED007A73EEE43A099DC5ED003AA5
S21400477036EE677A84ED007A77EE867AC0ED007AB8
S21400478075EEC57AC1ED007A35EE255A82ED005AEF
S214004790069B9E44079B73453FF6FFAEBAF1070F94
S2140047A040F2BA8101230A9300230993D046099C5C
S2140047B00B9B1C4404EB440204EB8403E71803EB56
S2140047C04406E500089800EBC401D1ED008A2146B6
S2140047D02401099100EB011191ED008A4FEAC20C09
S2140047E000EBC20292ED000A09984101089A02EB1A
S2140047F04012D2ED000ADA00089800EBC30393EDEE
S214004800001AFB0000EBC707D7ED001AF70000EB15
S214004810C60696ED002A043506460544D5ED002A60
S2140048200434044494ED003A0CF104003044D0ED16
S214004830003A0431314491ED004A04323244D2ED5C
S214004840004A0433334493ED005A04373744D7ED17
S214004850005A0A9B9A460AEB08000AEB480308EB44
S214004860030403EB480208EB020602EB480108EBE0
S214004870010B4FEACA0E09EBCA0595ED009A4FEAFE
S214004880C20C09EBC202D2ED007A79EE276A39EE45
S21400489067AAC700019709EBC000029090ED006A76
S2140048A0F00009EBC6060396D6ED007A36EE277AB8
S2140048B036EE67CADF0009EBC30393ED006ACE004D
S2140048C009EBC1010491D1ED007A76EE279A76EED7
S2140048D0677AE10009EBC4040594D4ED00AA4FEA18
S2140048E0CB0409EBCB0B9BED006A3AEE869A3AEEC8
S2140048F0C66A36EEE9DA76EEA96A37EE49EA37EEA8
S214004900097A36EE879A85ED009A76EEC7EA0EF1BA
S214004910040ECE449EED00BA0CF1040CCC44DCED43
S214004920006A3BEE267A3BEE66BA019D04354D449E
S214004930D5ED00BA04304844D0ED006A7BEEA6CA36
S2140049407BEEE6BA04374F44D7ED00AA04364E4451
S214004950D6ED006A7AEEA69A7AEEE6AA04314944C3
S21400496091ED009A04344C44D4ED006A79EE26DAD0
S21400497079EE666A37EE699A37EE297A7CEEED9A1A
S2140049807CEEADCA7DEE29DA3DEE69DA77EE2C9A3A
S214004990CEED009A37EE6C7A79EE4E9A3EEE099A94
S2140049A060EEAECA24EE07EA20EE877A64EE2EEAC0
S2140049B07CEE8ECAC2ED00CA37EE6E7A8CED007AB7
S2140049C028EE2D7A63EE29CA68EE299A63EE2DDA70
S2140049D037EE2C7A83ED007A79EEED9AC7ED009AE1
S2140049E021EE8D7A65EE099A21EE899A25EE0DDA8A
S2140049F037EE297A049A82ED007A39EE4D9A86EDE2
S214004A00009A3CEE469A9FED327A29EE079A3CEEE3
S214004A10066A26EE076A3BEEE6CA2CEE07CA7BEE6F
S214004A20A66A66EE876A7AEE499A3AEE099A77EEB1
S214004A30C6BA77EE867A7BEE4CCA3BEE0C6A3AEE46
S214004A40E6AA7AEEA66A39EE26BA39EE667A79EEE4
S214004A508AAA79EECA9A76EE676A77EE867A3CEE8E
S214004A60EBAA3BEEAC9A28EE8B6A62EEA6BA68EE2C
S214004A70A66A22EE8BBA36EE2B6A029B83ED006A9C
S214004A8076EECB6AC5ED006A62EE076A25EEA7BA37
S214004A9062EE277A25EE876A36EE8B7A8BED007A01
S214004AA077EEC67AC4ED007A61EE2A7A24EE8A6A38
S214004AB021EE0A7A64EEAA6A77EE867A039EC6ED3F
S214004AC0007A37EE667A80ED007A60EE296A01E0B9
S214004AD0F304353F23EE896A60EE097A23EEA97A5D
S214004AE076EE866A059CC4ED006A77EEC77AC1ED5D
S214004AF0007A069B9A44079B53453FF6ACAE0A9B4A
S214004B0001330A9398453FF652AE0B9BDB009BB2EF
S214004B100B93CDF818803BE50DB0BDEC0E8BBDE8D1
S214004B20F08F00BF00B54369B0F800C00CF1FF3C41
S214004B30D1ED007A91ED017A03F1080077EEA77ABD
S214004B4037EE077A77EE876AB6EE006A66EE866A12
S214004B5013460833C2ED006A77EEC77A67EE867AA8
S214004B60C2ED017A01EBCC0E08319EED015A724679
S214004B70AEF1080E92ED007AD1ED004AD1ED017A41
S214004B80D0ED006AD0ED015A083037EE646A35EE93
S214004B90274A66EE863A25EE866A66EE846A65EEF3
S214004BA0845A37EE247A37EE237A37EE257AF6EEF5
S214004BB0005A27EE257A83ED007A77EEC57A77EEEF
S214004BC0867A77EEE67A1A46083367EEA57AC2ED5D
S214004BD0017A08310CF1FF3CBCF1000FC5DC5DF832
S214004BE004FB10B5436900880138D1ED007A91EDD9
S214004BF0016A03F1080E37EE867AF6EE006A27EEB3
S214004C00267A02F1080C82ED007A77EEC67A67EE15
S214004C10A67AC2ED017A01EBC004083137E094EDC4
S214004C20015A2346083C93ED007AD1ED005AD1EDA7
S214004C30017A72460832DEED006A9EED016A35EEB4
S214004C40C74A75EE274A26EE843A66EE243A26EEE2
S214004C50046A66EEA46A37EE257A37EE437A37EEB4
S214004C60637AF6EE005A27EE257A634608338CED13
S214004C70007A77EEC57A77EE867A77EEE67A67EE92
S214004C80A57ACCED017A0831013896469C46002874
S214004C90C5DC10BDF8B504460D4616461F4643B1A2
S214004CA0FFF79FFF01233A4631462046FFF7F9FB00
S214004CB0F8BD01233A46FFF7F4FB32462946204664
S214004CC0FFF730FFF4E7000082B001910B46DFEDFE
S214004CD00A7A04E0B0EC017A77EE877A013B002B83
S214004CE0F8D19DED017AB8EE477AC7EE876AC2ED35
S214004CF0006A02B0704700BF0000000010B582B026
S214004D00019114460B469FED107A06E0F0EC017A0E
S214004D1067EEA77A37EE277A013B002BF6D1DDED5A
S214004D20017AF8EE677A87EE270AB5EEC00AF1EE4A
S214004D3010FA05DB11F028FF84ED000A02B010BD62
S214004D4000232360FAE700BF00000000012905D910
S214004D5010B403460C46DFED167A07E00023136016
S214004D607047B3EC017A77EE877A013C002CF8D1D5
S214004D7007EE101AB8EE476AC7EE866A9FED0C7A01
S214004D8008E0F0EC017A77EEE67A67EEA77A37EE7F
S214004D90277A01390029F4D1F7EE007A36EE676AF1
S214004DA0C7EE067AC2ED007A5DF8044B704700BF86
S214004DB00000000042684B680188408800FB01F153
S214004DC006E0F2EC017A67EE807AE3EC017A0139CC
S214004DD00029F6D10020704770B543684E68B0F8D9
S214004DE000C0458864464FF0000E0BE053F8040BF5
S214004DF0086001EB8C01013A002AF7D10EF1010E92
S214004E00013C03D006EB8E012A46F5E7002070BD74
S214004E1008B503F035FB03F05BFB03F06CFB03F017
S214004E205DFB03F05CFB08BD08B503F05CFB03F01C
S214004E305BFB03F05AFB03F059FB08BD00B583B0DB
S214004E40064A6B4692E8030083E80300184601F022
S214004E5049F9002003B05DF804FB00BF0CAA01006E
S214004E6010B582B0074A536F43F00103536700241E
S214004E7000948DF80440684601F06AF8204602B0B7
S214004E8010BD00BF004000506FF0040308E003F1BF
S214004E90604202F56142502182F8001301335BB292
S214004EA03F2B08DC002BF2DA03F00F01034A0A441A
S214004EB050211176F2E70020704700BFFCEC00E0BE
S214004EC0024B4FF480321A67704700BF00900050C4
S214004ED038B505460C4601F0A7FB05B128600CB1B5
S214004EE00D23236038BD000038B505460C46114B2F
S214004EF0D3F8203103F00303022B13D0032B15D075
S214004F00012B07D041F22B010B4801F021FB0023B7
S214004F10184602E001F082FB052305B1286004B1C3
S214004F20236038BD01F0B0FB0323F6E701F0B4FBC5
S214004F300223F2E70080005014AA010070B582B088
S214004F4006460D46002301930F4BD3F8804104F02C
S214004F500304012C08D0022C12D041F278110B4821
S214004F6001F0F6FA002404E0002101A8FFF7BCFFD8
S214004F700F240EB1019B336005B12C6002B070BDEA
S214004F8001F08AFB0190F4E70080005014AA0100AB
S214004F9038B505460C46184BD3F8243103F0070302
S214004FA0013B052B20D8DFE803F0030F171B0B137C
S214004FB001F034FB052305B1286004B1236038BD39
S214004FC001F02CFB0623F6E701F05EFB0323F2E775
S214004FD001F05AFB0423EEE701F05EFB0223EAE74A
S214004FE001F058FB0723E6E740F68851034801F036
S214004FF0AFFA00231846DEE70080005014AA01002E
S21400500038B505460C46124BD3F8000100F00300F5
S21400501003280FD8DFE800F01602060A01F034FB7A
S214005020032310E001F042FB08230CE001F032FB02
S214005030072308E040F6E871064801F089FA0023E5
S214005040184600E0012305B1286004B1236038BD8E
S2140050500080005014AA010038B505460C46114BD6
S214005060D3F8403103F00303022B13D0032B15D0E3
S214005070012B07D041F259010B4801F069FA0023D1
S214005080184602E001F00CFB092305B1286004B1C4
S214005090236038BD01F00AFB0823F6E701F003FBA6
S2140050A00B23F2E70080005014AA010008B50D4B50
S2140050B0D3F8203203F00303012B0DD0022B0ED0C1
S2140050C008B10023036009B100230B6040F6B2511B
S2140050D0054801F03DFA01E0FFF706FF08BDFFF7BF
S2140050E0BBFFFBE70080005014AA010030B583B078
S2140050F005460C46002301934FF0E0231B6913F08E
S214005100040F0CD001F0AAFA01900C2300930DB105
S214005110019B2B600CB1009B236003B030BD694639
S21400512001A8FFF799FFF2E738B505460C46144B81
S214005130D3F8003203F00703013B032B18D8DFE84F
S21400514003F0020A0E1201F0ABFA092305B128603B
S21400515004B1236038BD01F0A9FA0823F6E701F090
S214005160A2FA0B23F2E701F079FA800A0E23EDE7A4
S21400517041F22E21034801F0EBF900231846E5E73B
S2140051800080005014AA010038B505460C46114BA5
S214005190D3F8403203F00303022B13D0032B15D0B1
S2140051A0012B07D041F2C1110B4801F0D1F90023C1
S2140051B0184602E001F074FA092305B1286004B12C
S2140051C0236038BD01F072FA0823F6E701F06BFAA7
S2140051D00B23F2E70080005014AA010038B50546FC
S2140051E00C46114BD3F8603103F00303022B13D0A7
S2140051F0032B15D0012B07D041F287010B4801F095
S214005200A7F90023184602E001F04AFA092305B17F
S214005210286004B1236038BD01F048FA0823F6E799
S21400522001F041FA0B23F2E70080005014AA0100B7
S21400523010B5B0F5207F39D01DD8B0F5007F2FD03F
S21400524039D810B1B0F5C07F13D11C4B1C6F230B9F
S214005250C4F3033413F00E0F2ED0032C2CD0072CDF
S2140052602AD00F2C28D040F27221154801F070F990
S21400527022E0002420E0B0F5607F0FD10F4BD3F87A
S2140052808030C3F3011413F0200F15D0032C13D075
S21400529040F282210A4801F05BF90DE000240BE0A1
S2140052A0064BD3F89040C4F3046405E0034B1C6F30
S2140052B0C4F3802400E00024601C10BD0080005071
S2140052C014AA010038B505460C46174B4FF40032B9
S2140052D09A660020FFF7ACFF05FB00F0134BDA6977
S2140052E002F4803241F67131D9639B6823F440138F
S2140052F06CB90F49884207D800210B430B498B60D5
S2140053000AB10022CA6338BD4FF48011F5E7002CBD
S21400531007DD0749884201D80021EEE74FF48011E7
S214005320EBE74FF44011E8E7009000500000035010
S214005330005A620208B501F0A3F90021FFF7C2FF88
S21400534008BD000038B504460D46430905D0012BBC
S21400535015D0022B11D00C4B05E040F216310B484D
S21400536001F0F6F8002304F01F0455B103F580534E
S214005370012000FA04F41C6038BD054BF3E7054B2A
S214005380F1E703F50053F3E76082005014AA01002A
S214005390688000506480005010B582B000230193EE
S2140053A00093B0F5807F00F2F2802028C0F0E780FE
S2140053B02038E02800F2E580DFE810F02F01210118
S2140053C02F01210136013601360136012101210166
S2140053D06501540141016F015401210121012101A0
S2140053E0E300E300E300E300E300E30049016001BB
S2140053F0210121012101F70074012101E300E300EE
S214005400E300E300E300E300E300E300E300E3007F
S214005410E300E300E3002F01E3002F012F012F013B
S2140054203601E300E300E300E300E300E300E3000B
S214005430E300E300E300E300E300E3002F012F01B5
S214005440E300E300E300E300E300E300E300E3003F
S214005450E300E300E300E300E300E300E300E3002F
S214005460E300E300E300E300E300E300E300E3001F
S214005470E300E300E300E300E300E3004E01E300A3
S214005480E300E300E300E300E300E300E300E300FF
S214005490E300E300E300E300E300E300E300E300EF
S2140054A0E300E300E300E300E300E300E300E300DF
S2140054B0E300E300E300E300E300E300E300E300CF
S2140054C0E300E300E300E300E300E300E300E300BF
S2140054D0E300E300E300E300E300E300E300E300AF
S2140054E0E300E300E300E300E300E300E300E3009F
S2140054F0E300E300E300E300E300E300E300E3008F
S214005500E300E300E300E300E300E300E300E3007E
S214005510E300E300E300E300E300E300E300E3006E
S214005520E300E300E300E300E300E300E300E3005E
S214005530E300E300E300E300E300E300E300E3004E
S214005540E300E300E300E300E300E300E300E3003E
S214005550E300E300E300E300E300E300E300E3002E
S214005560E300E300E300E300E300E300E300E3001E
S214005570E300E300E300E300E300E3006A01002841
S2140055804BD040F26D414A4800F0E2FF67E0B0F5CC
S214005590906F73D00ED9B0F5D06F7ED049D9B0F5E4
S2140055A0E06F7FD0B0F5F06FEBD1002101A8FFF7D8
S2140055B015FE54E0B0F5407F54D00FD9B0F5607FAB
S2140055C02FD100216846FFF783FC009C4FF46070E3
S2140055D0FFF72EFEB4FBF0F4019440E0B0F5007F38
S2140055E00AD101F021F804464FF40070FFF720FEC0
S2140055F0B4FBF0F4019432E0B0F5207F0AD101F05C
S2140056002DF804464FF42070FFF712FEB4FBF0F4BA
S214005610019424E0B0F5C07FB3D101F01FF80190EB
S2140056201DE0B0F5806FACD1002101A8FFF75CFC4F
S21400563015E0B0F5B06F26D0B0F5C06F04D10021EC
S21400564001A8FFF709FD0AE0B0F5A06F99D1002187
S21400565001A8FFF72BFD02E000F0E6FF019001989D
S21400566002B010BD00F0FAFF04464FF42070FFF7BA
S214005670DFFDB4FBF0F464080194F0E7002101A814
S214005680FFF786FCEBE7002101A8FFF757FCE6E7EB
S214005690002101A8FFF72AFDE1E7002101A8FFF796
S2140056A043FDDCE7002101A8FFF76EFDD7E700BF4A
S2140056B014AA010008B58020FFF76EFE034B98423F
S2140056C003D8034B4FF480321A6708BD005A6202B3
S2140056D000A0005000B583B000230193B0F5807F92
S2140056E000F0868011D9B0F5D06F00F086803BD9E7
S2140056F0B0F5006F4DD051D9B0F5086F40F08C80F2
S21400570001A90020FFF77CFC69E052281FD8242856
S214005710C0F0828024382E287ED8DFE800F064644B
S21400572064647D7D5C7D2F6E7D7D7D7D7D7D7D7D54
S2140057307D7D737D7D7D7D45787D7D7D7D7D7D7DDB
S2140057407D7D7D7D7D7D7D7D7D7D7D7D640080286C
S21400575062D1344B1B6F03F00703013B032B34D895
S214005760DFE803F030272A2DB0F5A06F4AD00AD91B
S214005770B0F5B06F2FD0B0F5C06F4DD101A90020A5
S214005780FFF76AFC2BE0B0F5806F2CD0B0F5906F79
S21400579042D101A90020FFF7FBFB20E0B0F5E06F47
S2140057A035D0B0F5F06F37D101A90020FFF716FD10
S2140057B015E00523019312E0032301930FE007236E
S2140057C001930CE00223019309E040F29F41164842
S2140057D000F0BEFE03E001A90020FFF7AFFB019832
S2140057E003B05DF804FB01A90020FFF77DFBF6E798
S2140057F001A90020FFF77AFCF1E701A90020FFF7D6
S21400580093FCECE701A90020FFF750FCE7E701A9AD
S2140058100020FFF7B9FCE2E740F24B51024800F0E7
S21400582097FEDCE70080005014AA010008B50029A6
S21400583003DD0121FFF746FD08BD0021FFF742FD0D
S214005840FAE7000010B5B0F5207F65D033D8B0F584
S214005850007F4ED071D810B1B0F5C07F6DD14C1E10
S214005860012C05D9042903D0082901D0102934D1E8
S214005870FFF760FD00F06EF8FFF722FB324A136F69
S21400588023F4704343EA0433136700F0E7FE2F4B1C
S214005890D3F8843013F0100FF9D12C4BD3F88410C2
S2140058A0C1F38111C1F10201FFF7C0FF00F05AF801
S2140058B0FFF700FF10BDB0F5607F3ED14C1E012CF7
S2140058C001D904290FD1204AD2F8803023F03003C2
